:020000040800F2
:10000000280800200101000893110008C50E00080F
:1000100091110008C301000801170008000000004A
:100020000000000000000000000000003F13000876
:10003000C5010008000000003D130008411300083E
:100040001B0100081B0100081B0100081B01000820
:100050001B0100081B0100081B0100081B01000810
:100060001B0100081B010008CF0100081B0100084C
:100070001B0100081B0100081B0100081B010008F0
:100080001B0100081B0100081B0100081B010008E0
:100090001B0100081B0100081B0100081B010008D0
:1000A0001B0100081B0100081B0100081B010008C0
:1000B0001B0100081B0100081B0100081B010008B0
:1000C0001B0100081B0100081B0100081B010008A0
:1000D0001B0100081B0100081B0100081B01000890
:1000E000C70100081B0100081B010008DFF80CD045
:1000F00000F02AF8004800474D18000828080020A2
:100100000648804706480047FEE7FEE7FEE7FEE7B1
:10011000FEE7FEE7FEE7FEE7FEE7FEE7A1130008C5
:10012000ED000008D2B201E000F8012B491EFBD21D
:1001300070470022F6E710B513460A4604461946F2
:10014000FFF7F0FF204610BD064C074D06E0E068C3
:1001500040F0010394E8070098471034AC42F6D30E
:10016000FFF7C8FF241900084419000870B58C185F
:1001700010F8015B15F0070301D110F8013B2A11BB
:1001800006D110F8012B03E010F8016B01F8016BA8
:100190005B1EF9D12B0705D40023521E0DD401F8A4
:1001A000013BFAE710F8013BCB1A921C03E013F86D
:1001B000015B01F8015B521EF9D5A142D8D30020A2
:1001C00070BDFEE770474FF4805000F025B8102056
:1001D00000F022B872B6FEE770B5044600F01CF9D4
:1001E0000546601C02D004480078044400F014F96D
:1001F000401BA042FAD370BD00000020054A4FF416
:100200000051102802D0B0F5805F02D1104600F0F6
:10021000F5B8704700100140044910B50A68024261
:1002200002D00860FFF7EAFF10BD0000140401408F
:100230002DE9F84FDFF8A4910024A9F1040B23461F
:100240004FF00F0809F1040AABF1040EBEE00127DC
:10025000A7403A40BA4272D1DFF884C14D68A5EB9D
:100260000C0665452BD00DDC032D34D005DC35B3F1
:10027000012D19D0022D2FD11BE0112D16D0122DDA
:100280002AD119E0B6F5881F19D006DCB6F5803FF3
:1002900015D0B6F5801F1FD111E0B6F5001F0ED0A6
:1002A000B6F5041F18D10AE0CB6815E0CB681B1D1A
:1002B00012E0CB6808330FE0CB680C330CE08B689E
:1002C0002BB1012B4FF0080303D0476104E0042356
:1002D00002E0076100E00023FF2A01D8064601E0A2
:1002E00000F104064FEA840501D9A5F1200537681D
:1002F00008FA05FC27EA0C0703FA05F547EA0507A3
:1003000037604D68ED0060D5364DAE6946F00106A8
:10031000AE61AD6924F0030605F001050095324D8C
:100320007719BE68A5072D0F08FA05FC26EA0C060A
:10033000DFF8B8C0604503D14FF0000C17E044E08F
:10034000DFF8ACC0604502D14FF0010C0FE0DFF8E0
:10035000A4C0604502D14FF0020C08E0DFF898C05D
:10036000604502D14FF0030C01E04FF0040C0CFA91
:1003700005FC4CEA060CC7F808C04D68D9F80060C7
:10038000ED024D4601D5164300E096432E604D68C0
:10039000DAF80060AD02554601D5164300E09643F9
:1003A0002E604D68DBF80060AD035D4601D5164355
:1003B00000E096432E604D68DEF80060ED03754660
:1003C00001D5164300E096432E60641C0A6832FA99
:1003D00004F57FF43CAFBDE8F88F0000080401404D
:1003E0000000111000100240000001400008014010
:1003F000000C01400010014000140140C26821EAD5
:1004000002030A4043EA0241016170470AB10161F7
:1004100070470904FBE7000001488068704700004E
:100420000000002002488168027811448160704712
:1004300000000020074810B5016841F0100101607C
:10044000032000F075F80F2000F006F800F024F803
:10045000002010BD0020024070B50D4D04464FF441
:100460007A712878B1FBF0F00A490968B1FBF0F025
:1004700000F0DEFA48B9102C07D200222146501EA7
:1004800000F036F800206C6070BD012070BD0000E7
:10049000000000200C0000200C4808B5816941F0E4
:1004A00001018161816901F001010091C16941F09F
:1004B0008051C161C069064900F0805000904868D1
:1004C00020F0E06040F00070486008BD001002407D
:1004D00000000140002809DB00F01F0201219140CB
:1004E0004009800000F1E020C0F8001170470000D2
:1004F000F0B40E4B1B68C3F30223C3F10704042CB2
:1005000000D904241D1D072D01D2002300E0DB1EAD
:10051000012606FA04F56D1E0D409D409E40761E94
:10052000164045EA0601F0BC01F054B90CED00E0BC
:10053000064A00F0070110684FF6FF03184040EA32
:100540000120034908431060704700000CED00E0F3
:100550000000FA052DE9F0470D46040067D0DFF8EA
:100560001881D8F8000000F00700A8420CD2D8F893
:10057000001021F007012943C8F80010D8F8000046
:1005800000F00700A84252D120683C4E810712D5E6
:10059000400703D5706840F4E06070602078000781
:1005A00003D5706840F4605070607068A16820F0F6
:1005B000F000084370602078C00727D060680128E9
:1005C00010D03168022810D0890700292FDA71680D
:1005D00021F0030101437160FFF71EFF074641F25E
:1005E00088390CE031688903EFE78901EDE7FFF70F
:1005F00013FFC11B494502D90320BDE8F08770688D
:10060000616800F00C00B0EB810FF0D1D8F8001059
:10061000404601F00701A9420BD9016821F007010A
:1006200029430160006800F00700A84201D00120C2
:10063000E3E72078400705D57068E16820F4E060C2
:10064000084370602078000706D57068216920F49F
:10065000605040EAC100706000F038F87168084AE4
:10066000C1F30311515CC8400649086006480068A0
:10067000FFF7F2FE0020C0E7002002400010024019
:100680000A1900080C000020040000200448054955
:1006900000684968044AC1F30221515CC8407047B0
:1006A0000C000020001002401A19000804480549F7
:1006B00000684968044AC1F3C221515CC8407047D0
:1006C0000C000020001002401A1900080E4B596857
:1006D0000E4801F00C02042A11D0082A0FD10C4850
:1006E000C1F38342C903805C0AD55968084AC1F343
:1006F0004041921E515C054A5043B0FBF1F07047F7
:1007000004494843704700000010024000127A007C
:10071000FA18000800093D002DE9F84F04006FD0D9
:100720002078BE4DC00747D06868C0F3810001281B
:1007300007D06868C0F38100022809D16868C00347
:1007400006D52868800337D560680028E7D033E0F5
:100750006068B0F5803F0BD010B1B0F5A02F11D07C
:10076000286820F480302860286820F4802002E087
:10077000286840F480302860606888B1FFF74CFE3C
:10078000064609E0286840F480202860F0E7FFF77B
:1007900043FE801B642873D828688003F7D50BE0DC
:1007A000FFF73AFE064604E0FFF736FE801B64289A
:1007B000F1D828688003F7D42078DFF864828007B6
:1007C0004FF0010A4FF0000939D5686810F00C0F9E
:1007D00007D06868C0F38100022809D16868C003A7
:1007E00006D42868800714D52069012808D110E0B4
:1007F0002069B0B1C8F800A0FFF70EFE064605E07C
:1008000007E1FFF709FE801B0228C4D8286880078B
:10081000F7D52868616920F0F80040EAC100286037
:100820000DE0C8F80090FFF7F7FD064604E0FFF77B
:10083000F3FD801B022823D828688007F7D420788E
:1008400000072CD57748A169D9B1C0F800A0FFF7FF
:10085000E3FD064604E0FFF7DFFD801B02280FD80A
:10086000686A8007F7D570484FF4FA510068B0FB0A
:10087000F1F0009000BF0098411E0091FAD20EE006
:100880007CE0C0F80090FFF7C7FD064604E0FFF7E4
:10089000C3FD801B022871D8686A8007F7D42078CE
:1008A00040075BD5E8690027C00008D4E86940F03C
:1008B0008050E861E869012700F0805000905B48B3
:1008C0000168C90511D40168834641F48071016053
:1008D000FFF7A2FD064604E0FFF79EFD801B64289B
:1008E0004CD8DBF80000C005F6D5E06801280AD036
:1008F00008B1052813D0286A20F001002862286A70
:1009000020F0040002E0286A40F001002862E0685C
:1009100041F2883B88B1FFF77FFD064609E0286A6F
:1009200040F004002862EEE7FFF776FD811B594591
:100930005BD8286A8007F7D50BE0FFF76DFD064608
:1009400004E0FFF769FD811B59454ED8286A8007EE
:10095000F7D41FB1E86920F08050E861E069A8B3DE
:100960006968C1F38101022946D00228484606D0B1
:10097000C8F86000FFF750FD044639E035E047460F
:10098000C8F86000FFF748FD064604E0FFF744FDA5
:10099000801B022829D828688001F7D4206AB0F586
:1009A000803F05D16868A16820F400300843686082
:1009B000D4E908010843696821F4741108436860A8
:1009C000C7F860A0FFF728FD044605E023E0FFF725
:1009D00023FD001B022808D828688001F7D51AE0FB
:1009E000FFF71AFD001B022802D90320BDE8F88F8B
:1009F00028688001F4D40EE00128F7D06868226AE4
:100A000000F48031914204D1616A00F47010884290
:100A100001D00120EAE70020E8E7000000100240D2
:100A200000004242800442420C000020007000405E
:100A300010B5401EB0F1807F01D3012010BD4FF0F2
:100A4000E02460610F21601700F0C4FE0020A06167
:100A500007202061002010BD10B590F83C20012A2D
:100A600022D0012280F83C20CA688C6822F44072AF
:100A700022434C6822F4806222430C6822F4006214
:100A800022430C6922F4805222434C6922F4005222
:100A90002243C969002322F480420A4301684A6460
:100AA00080F83C30002010BD022010BD70B590F8D9
:100AB0003C20012A26D0012580F83C50022280F8F3
:100AC0003D2002685368946823F070060B68334336
:100AD00053600D4B02689A4208D0B2F1804F05D0A6
:100AE0000A4B9A4202D00A4B9A4204D1496824F038
:100AF00080031943916080F83D50002180F83C103C
:100B0000084670BD022070BD002C0140000400406A
:100B10000008004000B585B00021009101910291CC
:100B2000039100680B49884212D10B48816941F05A
:100B3000040181618069694600F0040004904FF46B
:100B4000106000900220019003900448FFF770FBB2
:100B500005B000BD002C014000100240000801401B
:100B600070B5044690F83C0000260D4601280FD0D1
:100B7000012084F83C006AB1042A1DD0082A2FD035
:100B80000C2A3FD00126002084F83C00304670BD7E
:100B9000022070BD206800F04FFC2068816941F0A0
:100BA000080181612068816921F004018161206868
:100BB00081692A69114311E0206800F069FC20680E
:100BC000816941F4006181612068816921F480615B
:100BD0008161206881692A6941EA02218161D2E745
:100BE000206800F083FC2068C16941F00801C16100
:100BF0002068C16921F00401C1612068C1692A69C6
:100C0000114311E0206800F09DFC2068C16941F4A7
:100C10000061C1612068C16921F48061C1612068FF
:100C2000C1692A6941EA0221C161ACE710B504003B
:100C300003D094F83D0010B107E0012010BD002062
:100C400084F83C00204600F01FF8022084F83D00A4
:100C5000211D206800F0A6FB012084F8460084F8DE
:100C60003E0084F83F0084F8400084F8410084F896
:100C7000420084F8430084F8440084F8450084F876
:100C80003D00002010BD000008B5006806498842FC
:100C900008D10648816941F400618161806900F4EE
:100CA0000060009008BD0000002C014000100240D0
:100CB00010B5044649B104290AD008290BD094F88C
:100CC000410001280AD0012010BD94F83E00F8E749
:100CD00094F83F00F5E794F84000F2E7022041B3B2
:100CE000042929D008292AD084F84100012220684B
:100CF00000F094FB13492068884203D1426C42F40F
:100D0000004242642068884208D0B0F1804F05D08C
:100D10000D49884202D00D49884204D1816801F012
:100D20000701062903D0016841F00101016000209C
:100D300010BD84F83E00D9E784F83F00D6E784F878
:100D40004000D3E7002C01400004004000080040B0
:100D500070B5040004D094F84100002510B106E0FD
:100D6000012070BD84F84050204600F023F8242074
:100D700084F841002068C16821F40051C160204618
:100D800000F02AFC2068016921F49041016120688B
:100D9000416921F02A0141612068C16841F4005194
:100DA000C1606564202084F8410084F842006563D6
:100DB000002070BD30B585B00024009401940294E9
:100DC000039400681449884224D11448816941F48D
:100DD00080418161816901F480410491816941F020
:100DE0000401816180690E4D00F0040004904FF40D
:100DF000007000900220019003200390694628466D
:100E0000FFF716FA2815CDE9000469462846029432
:100E1000FFF70EFA05B030BD003801400010024067
:100E2000000801402DE9F843044690F841001F46B0
:100E300015460E46202802D00220BDE8F8838EB168
:100E400085B100206064212084F84100FFF7E4FAB6
:100E5000A5848146E584A0684FF02008B0F5805F46
:100E600002D003E00120E8E7206910B135460026F2
:100E70000EE000250CE08021204600F009FCA0B91E
:100E8000BDB115F8010B21684860E08C401EE0847C
:100E9000E08C4B464FF0000200970028EBD14FF05A
:100EA0004001204600F0F4FB40B184F8418003206B
:100EB000C3E736F8020BC0F30800E4E784F841808A
:100EC0000020BAE7FEE700002DE9F04101220C4DB9
:100ED000D40321462846FFF799FA0122094F160349
:100EE00031463846FFF792FA002231463846FFF77E
:100EF0008DFA21462846BDE8F0410022FFF786BA68
:100F000000080140000C014070B501220C4DD403D3
:100F100021462846FFF77AFA002221462846FFF7A5
:100F200075FA084DE410002221462846FFF76EFAB4
:100F300021462846BDE870400122FFF767BA00004D
:100F400000080140000C014070B50122064DD40399
:100F500021462846FFF75AFA21462846BDE8704048
:100F60000022FFF753BA0000000801402DE9F04FBE
:100F700085B000244548009401940294039481694B
:100F800041F010018161816901F0100104918169D2
:100F900041F020018161816901F0200104918169A2
:100FA00041F008018161816901F0080104918169C2
:100FB00041F0040181618069DFF8D4A000F00400F1
:100FC0004FF400550490002229465046FFF71EFAC0
:100FD0000122170339462F48FFF718FA42F2080892
:100FE000002241462B48FFF711FADFF8ACB04FF46E
:100FF0000049012249465846FFF708FA00950226A3
:1010000001250396CDE9015469465046FFF710F9D2
:10101000CDE90075CDE9025669461E48FFF708F98B
:10102000CDF800800396CDE9015469461948FFF7D1
:10103000FFF81A480097CDE9010569465846FFF7C1
:10104000F7F8CDE90095CDE9025669465846FFF715
:10105000EFF8102000901248CDE9010669460D48CE
:10106000FFF7E6F8002211460A20FFF741FA0A20AE
:10107000FFF730FA002211462820FFF739FA28201E
:10108000FFF728FA05B0BDE8F08F0000001002401D
:1010900000100140000C0140000801400000211038
:1010A0000000111010B592B000240F941C21684666
:1010B0001094FFF73EF8202107A8FFF73AF82548DB
:1010C0002349016040F29F51C0E901146321C0E946
:1010D000031444618461FFF7A9FD08B1FFF77AF8B2
:1010E0000F940FA91B481094FFF7E0FC08B1FFF71D
:1010F00071F8602000903220CDE90104039404943B
:1011000005940022694613480694FFF729FD08B1AB
:10111000FFF760F80C2269460E48FFF721FD08B181
:10112000FFF758F80794089409944FF400500A9474
:10113000CDE90B4007A907480E94FFF78DFC08B1D5
:10114000FFF748F80348FFF7E5FC12B010BD0000B8
:10115000002C0140940300200C4810B50A4901609E
:101160004FF4E1314160002181600C22C160C0E98F
:1011700004128161C161FFF7EBFD002803D0BDE8D7
:101180001040FFF727B810BD00380140DC030020F5
:10119000FEE7FEE770B50025002105F1B00000F084
:1011A000C7F80021084600F0C3F80021102000F025
:1011B000BFF800240121002000F0BAF8641CE4B25A
:1011C000802CF7D36D1CEDB2082DE5D370BD10B5A2
:1011D0004FF44870FFF700F80021AE2000F0A8F8A7
:1011E0000021084600F0A4F80021102000F0A0F82B
:1011F0000021402000F09CF80021B02000F098F879
:101200000021812000F094F80021FF2000F090F8E8
:101210000021A12000F08CF80021A62000F088F821
:101220000021A82000F084F800213F2000F080F881
:101230000021C82000F07CF80021D32000F078F8CD
:101240000021084600F074F80021D52000F070F865
:101250000021802000F06CF80021D82000F068F810
:101260000021052000F064F80021D92000F060F88A
:101270000021F12000F05CF80021DA2000F058F89D
:101280000021122000F054F80021DB2000F050F87B
:101290000021302000F04CF800218D2000F048F8AB
:1012A0000021142000F044F80021BDE81040AF20D8
:1012B00000F03EB810B50A460446002102F1B00025
:1012C00000F036F8102040EA1410002100F030F849
:1012D00004F00F00BDE81040002100F029B8000024
:1012E0002DE9F04115460E460746FFF7E3FF0F488C
:1012F000002400EB85150121285D00F019F8641C1D
:10130000E4B2102CF7D3761CF1B23846FFF7D2FFC7
:1013100000242819012190F8200000F009F8641C2D
:10132000E4B2102CF5D3BDE8F081000010000020DD
:10133000C0B209B100F02FBA00F016BA704770477A
:10134000FFF770B830B58FB028216846FEF7F1FE80
:1013500014210AA8FEF7EDFE0120010400248DE807
:10136000130004904FF4E010CDE908100225079512
:101370006846FFF7D1F908B172B6FEE70F20CDE954
:101380000A054FF48060CDE90C4002210AA80E94B2
:10139000FFF7E0F8002801D072B6FEE70FB030BDCD
:1013A00070470000F0B50268194C1A4D1A4E4FF004
:1013B0008047A04205D0B84203D0A84201D0B04235
:1013C00003D122F070034A681A43A04205D0B84204
:1013D00003D0A84201D0B04203D122F44073CA68BE
:1013E0001A434B6922F080021A4302608A68C26283
:1013F0000A688262A04201D1096901630121416149
:101400000169C90703D0016921F001010161F0BD43
:10141000002C0140000400400008004010B501F01D
:101420001F010123046A8B409C430462036A8A40C3
:101430001343036210BD000030B5026A036A23F053
:10144000010303624368846924F073050C682C432C
:1014500022F002058A682A430C4DA84206D122F0E8
:101460000805CA6842EA050222F0040207D14D6964
:1014700023F4407345EA03058B6943EA050343609F
:10148000846149684163026230BD0000002C014064
:1014900030B5036A026A22F010020262426884696F
:1014A0000D6824F4E64444EA05248D6823F0200303
:1014B00043EA05130C4DA84206D1CD6823F0800302
:1014C00043EA051323F0400307D14D6922F440623B
:1014D00042EA85028D6942EA850242608461496878
:1014E0008163036230BD0000002C014030B5026A08
:1014F000036A23F4807303624368C46922F40072B0
:1015000024F073050C682C438D6842EA05220C4DCB
:10151000A84206D1CD6822F4006242EA052222F4F4
:10152000806207D14D6923F4405343EA05138D6966
:1015300043EA05134360C4614968C163026230BD78
:10154000002C014030B5046A026A22F48052026223
:101550004268C3690D6823F4E64343EA05238D68B6
:1015600024F4005444EA0534064DA84204D14D69E0
:1015700022F4804242EA85124260C36149680164F4
:10158000046230BD002C014001680C3151E8002F8D
:1015900022F4907241E80023002BF5D10168143148
:1015A00051E8002F22F0010241E80023002BF5D181
:1015B000016B012909D101680C3151E8002F22F09B
:1015C000100241E80023002BF5D1202180F84210C1
:1015D000002101637047000070B50446006801698E
:1015E000E26821F4405111430161A168206901437F
:1015F000606901432068C26841F20C639A430A4360
:10160000C26020684169A26921F4407111434161BF
:101610001E492068884202D1FFF748F801E0FFF731
:1016200035F800EBC00101EB001160686422800016
:10163000B1FBF0F3B3FBF2F36FF018067343B1FBA9
:10164000F0F5B1FBF0F605EB8305322303EB05154E
:10165000B5FBF2F5B6FBF2F605F0F00505EB061565
:10166000B1FBF0F6B1FBF0F0B0FBF2F06FF0180157
:10167000484306EB800003EB0010B0FBF2F021685A
:1016800000F00F002844886070BD00000038014061
:101690002DE9F8431F4690460D460446089E23E078
:1016A000701C21D0FEF7B8FEC01BB0421AD8CEB1D4
:1016B0002068C168490717D5802D15D0402D13D05B
:1016C0000168C94309070FD40168002540680090EC
:1016D0002046FFF759FF0820606484F8405001203D
:1016E000BDE8F8830320FBE72068006835EA0000C6
:1016F00004D000204045D3D00020F1E70120F9E7D5
:10170000FEE700002DE9F047154F04464FF4004670
:10171000002231463846FEF779FEDFF84890002572
:101720004FF4805804F08000802816D000224146F3
:101730004846FEF76BFE6006040E0122314638462D
:10174000FEF764FE002231463846FEF75FFE6D1C50
:10175000EDB2082DE6D3BDE8F0870122E7E70000EF
:1017600000080140000C014010B50446FFF7ACFB37
:101770007820FFF7C7FFFFF7E7FB0020FFF7C2FF66
:10178000FFF7E2FB2046FFF7BDFFFFF7DDFBBDE8FB
:101790001040FFF7B9BB10B50446FFF795FB782062
:1017A000FFF7B0FFFFF7D0FB4020FFF7ABFFFFF7DD
:1017B000CBFB2046FFF7A6FFFFF7C6FBBDE81040B6
:1017C000FFF7A2BB014A024900F023B83518000810
:1017D000900300200907090E002804DB00F1E02037
:1017E00080F80014704700F00F0000F1E02080F84E
:1017F000141D704702E008C8121F08C1002AFAD160
:1018000070477047002001E001C1121F002AFBD180
:1018100070472DE9F04116460F460446002503E0C7
:101820003946B047641C6D1C20780028F8D1284642
:10183000BDE8F08113B54FF6FF73012269460248F7
:10184000FFF7F0FA00981CBDDC030020FEF7F2FD64
:10185000FFF778FDFFF78AFBFFF77EFCFFF722FC1E
:10186000FFF7B5FCFFF796FC00211B48FFF720FAB5
:101870000C211948FFF71CFA174D4FF47A762824EB
:10188000002211461046FFF72BFD012200211220F5
:10189000FFF726FD022200212420FFF721FD03226D
:1018A00000213620FFF71CFD042200214820FFF70D
:1018B00017FD052200215A20FFF712FD0622002104
:1018C0006C20FFF70DFD3046FEF786FC03A0FFF706
:1018D00079FF28684463D3E7940300207072696E2F
:1018E00074663AE5A5BDE5AEB6E4BC99564343E659
:1018F000B58BE8AF950D0A00010202030405060747
:1019000008090A0B0C0D0E0F10100000000000005B
:10191000000001020304060708090000000001029C
:101920000304000044190008000000209403000094
:101930006C010008B41A000894030020940400000D
:10194000041800083201821033127A1BF010012AA9
:10195000FF050215F01B0F04012AFF0502130F18E3
:10196000094040405F55555575041A5F0C09112117
:10197000080C11200F094989790909090F201F1145
:101980002FFE02424ACA4A0304134202FE000E140A
:10199000FF40504C4340404F50505C40FF1BF88884
:1019A000012AFF050215F81B1F08012A7F200B10D2
:1019B0009F80E23B808201000916E2A2928A868221
:1019C0008080041840807F172424A4FEA3221B22B9
:1019D000CCAA011415080601FF2B0104010511FF13
:1019E0000202025808101010FF109008C3021108DC
:1019F000080F100444827F01808040432C10284649
:101A000081A018094040484848C8784F0605154845
:101A10004840400009150312122222528A063C1047
:101A20006080BA19040B11C030FB1E404043407F58
:101A3000061C7F424106094FC02941080B1110D0F6
:101A400030FF30D0121C10101F3D080402019E0D03
:101A50001101020408211116FE222222FE0712FEA5
:101A6000828292A29E100880601F0242827F0F1124
:101A7000FF402F102C438011000B1490884C57A46A
:101A80002454548C84180801018042221A07441DF2
:101A9000423E01018AF9E1000D14E4242CB425260C
:101AA00024B42C24E404180AFF02011E1212121E90
:041AB0004186011654
:04000005080000ED02
:00000001FF
